{
  "_format": "hh-sol-artifact-1",
  "contractName": "Evidence",
  "sourceName": "contracts/Evidence.sol",
  "abi": [
    {
      "inputs": [],
      "stateMutability": "nonpayable",
      "type": "constructor"
    },
    {
      "inputs": [
        {
          "internalType": "address",
          "name": "owner",
          "type": "address"
        }
      ],
      "name": "OwnableInvalidOwner",
      "type": "error"
    },
    {
      "inputs": [
        {
          "internalType": "address",
          "name": "account",
          "type": "address"
        }
      ],
      "name": "OwnableUnauthorizedAccount",
      "type": "error"
    },
    {
      "anonymous": false,
      "inputs": [
        {
          "indexed": false,
          "internalType": "uint256",
          "name": "id",
          "type": "uint256"
        },
        {
          "indexed": false,
          "internalType": "string",
          "name": "fileHash",
          "type": "string"
        },
        {
          "indexed": false,
          "internalType": "uint256",
          "name": "timestamp",
          "type": "uint256"
        },
        {
          "indexed": false,
          "internalType": "address",
          "name": "uploader",
          "type": "address"
        },
        {
          "indexed": false,
          "internalType": "enum Evidence.EvidenceType",
          "name": "recordType",
          "type": "uint8"
        }
      ],
      "name": "EvidenceAdded",
      "type": "event"
    },
    {
      "anonymous": false,
      "inputs": [
        {
          "indexed": true,
          "internalType": "uint256",
          "name": "id",
          "type": "uint256"
        },
        {
          "indexed": true,
          "internalType": "address",
          "name": "from",
          "type": "address"
        },
        {
          "indexed": true,
          "internalType": "address",
          "name": "to",
          "type": "address"
        },
        {
          "indexed": false,
          "internalType": "uint256",
          "name": "timestamp",
          "type": "uint256"
        }
      ],
      "name": "EvidenceTransferred",
      "type": "event"
    },
    {
      "anonymous": false,
      "inputs": [
        {
          "indexed": true,
          "internalType": "address",
          "name": "previousOwner",
          "type": "address"
        },
        {
          "indexed": true,
          "internalType": "address",
          "name": "newOwner",
          "type": "address"
        }
      ],
      "name": "OwnershipTransferred",
      "type": "event"
    },
    {
      "inputs": [
        {
          "internalType": "string",
          "name": "_fileHash",
          "type": "string"
        },
        {
          "internalType": "string",
          "name": "_metadata",
          "type": "string"
        },
        {
          "internalType": "enum Evidence.EvidenceType",
          "name": "_recordType",
          "type": "uint8"
        }
      ],
      "name": "addEvidence",
      "outputs": [],
      "stateMutability": "nonpayable",
      "type": "function"
    },
    {
      "inputs": [
        {
          "internalType": "uint256",
          "name": "",
          "type": "uint256"
        }
      ],
      "name": "evidenceRecords",
      "outputs": [
        {
          "internalType": "uint256",
          "name": "id",
          "type": "uint256"
        },
        {
          "internalType": "string",
          "name": "fileHash",
          "type": "string"
        },
        {
          "internalType": "uint256",
          "name": "timestamp",
          "type": "uint256"
        },
        {
          "internalType": "address",
          "name": "uploader",
          "type": "address"
        },
        {
          "internalType": "address",
          "name": "owner",
          "type": "address"
        },
        {
          "internalType": "string",
          "name": "metadata",
          "type": "string"
        },
        {
          "internalType": "enum Evidence.EvidenceType",
          "name": "recordType",
          "type": "uint8"
        }
      ],
      "stateMutability": "view",
      "type": "function"
    },
    {
      "inputs": [],
      "name": "getRecordCount",
      "outputs": [
        {
          "internalType": "uint256",
          "name": "",
          "type": "uint256"
        }
      ],
      "stateMutability": "view",
      "type": "function"
    },
    {
      "inputs": [
        {
          "internalType": "uint256",
          "name": "_id",
          "type": "uint256"
        }
      ],
      "name": "getTransferHistory",
      "outputs": [
        {
          "components": [
            {
              "internalType": "address",
              "name": "from",
              "type": "address"
            },
            {
              "internalType": "address",
              "name": "to",
              "type": "address"
            },
            {
              "internalType": "uint256",
              "name": "timestamp",
              "type": "uint256"
            }
          ],
          "internalType": "struct Evidence.TransferLog[]",
          "name": "",
          "type": "tuple[]"
        }
      ],
      "stateMutability": "view",
      "type": "function"
    },
    {
      "inputs": [],
      "name": "owner",
      "outputs": [
        {
          "internalType": "address",
          "name": "",
          "type": "address"
        }
      ],
      "stateMutability": "view",
      "type": "function"
    },
    {
      "inputs": [],
      "name": "renounceOwnership",
      "outputs": [],
      "stateMutability": "nonpayable",
      "type": "function"
    },
    {
      "inputs": [
        {
          "internalType": "uint256",
          "name": "_recordId",
          "type": "uint256"
        },
        {
          "internalType": "address",
          "name": "_newOwner",
          "type": "address"
        }
      ],
      "name": "transferEvidence",
      "outputs": [],
      "stateMutability": "nonpayable",
      "type": "function"
    },
    {
      "inputs": [
        {
          "internalType": "uint256",
          "name": "",
          "type": "uint256"
        },
        {
          "internalType": "uint256",
          "name": "",
          "type": "uint256"
        }
      ],
      "name": "transferHistory",
      "outputs": [
        {
          "internalType": "address",
          "name": "from",
          "type": "address"
        },
        {
          "internalType": "address",
          "name": "to",
          "type": "address"
        },
        {
          "internalType": "uint256",
          "name": "timestamp",
          "type": "uint256"
        }
      ],
      "stateMutability": "view",
      "type": "function"
    },
    {
      "inputs": [
        {
          "internalType": "address",
          "name": "newOwner",
          "type": "address"
        }
      ],
      "name": "transferOwnership",
      "outputs": [],
      "stateMutability": "nonpayable",
      "type": "function"
    }
  ],
  "bytecode": "0x60806040523480156200001157600080fd5b5033600073ffffffffffffffffffffffffffffffffffffffff168173ffffffffffffffffffffffffffffffffffffffff1603620000885760006040517f1e4fbdf70000000000000000000000000000000000000000000000000000000081526004016200007f9190620001a9565b60405180910390fd5b6200009981620000a060201b60201c565b50620001c6565b60008060009054906101000a900473ffffffffffffffffffffffffffffffffffffffff169050816000806101000a81548173ffffffffffffffffffffffffffffffffffffffff021916908373ffffffffffffffffffffffffffffffffffffffff1602179055508173ffffffffffffffffffffffffffffffffffffffff168173ffffffffffffffffffffffffffffffffffffffff167f8be0079c531659141344cd1fd0a4f28419497f9722a3daafe3b4186f6b6457e060405160405180910390a35050565b600073ffffffffffffffffffffffffffffffffffffffff82169050919050565b6000620001918262000164565b9050919050565b620001a38162000184565b82525050565b6000602082019050620001c0600083018462000198565b92915050565b6118b380620001d66000396000f3fe608060405234801561001057600080fd5b50600436106100935760003560e01c80638da5cb5b116100665780638da5cb5b1461010a578063ca267f2814610128578063dedaff5414610146578063eba57a5714610178578063f2fde38b146101ae57610093565b806305fcb06e146100985780636de2c7db146100b4578063715018a6146100d05780638bb27d02146100da575b600080fd5b6100b260048036038101906100ad9190610dd1565b6101ca565b005b6100ce60048036038101906100c99190610f7c565b6104ac565b005b6100d86107bb565b005b6100f460048036038101906100ef9190611007565b6107cf565b6040516101019190611143565b60405180910390f35b6101126108f7565b60405161011f9190611174565b60405180910390f35b610130610920565b60405161013d919061119e565b60405180910390f35b610160600480360381019061015b91906111b9565b61092a565b60405161016f939291906111f9565b60405180910390f35b610192600480360381019061018d9190611007565b6109b1565b6040516101a59796959493929190611326565b60405180910390f35b6101c860048036038101906101c391906113a3565b610b50565b005b600154821061020e576040517f08c379a00000000000000000000000000000000000000000000000000000000081526004016102059061141c565b60405180910390fd5b60006002600084815260200190815260200160002090503373ffffffffffffffffffffffffffffffffffffffff168160040160009054906101000a900473ffffffffffffffffffffffffffffffffffffffff1673ffffffffffffffffffffffffffffffffffffffff16146102b7576040517f08c379a00000000000000000000000000000000000000000000000000000000081526004016102ae906114ae565b60405180910390fd5b60008160040160009054906101000a900473ffffffffffffffffffffffffffffffffffffffff169050828260040160006101000a81548173ffffffffffffffffffffffffffffffffffffffff021916908373ffffffffffffffffffffffffffffffffffffffff1602179055506003600085815260200190815260200160002060405180606001604052808373ffffffffffffffffffffffffffffffffffffffff1681526020018573ffffffffffffffffffffffffffffffffffffffff16815260200142815250908060018154018082558091505060019003906000526020600020906003020160009091909190915060008201518160000160006101000a81548173ffffffffffffffffffffffffffffffffffffffff021916908373ffffffffffffffffffffffffffffffffffffffff16021790555060208201518160010160006101000a81548173ffffffffffffffffffffffffffffffffffffffff021916908373ffffffffffffffffffffffffffffffffffffffff1602179055506040820151816002015550508273ffffffffffffffffffffffffffffffffffffffff168173ffffffffffffffffffffffffffffffffffffffff16857f7cfd34b0adc581be5570d4cec562bfe6797fed8335c0d369789d10d33cbec2514260405161049e919061119e565b60405180910390a450505050565b6104b4610bd6565b600060015490506040518060e001604052808281526020018581526020014281526020013373ffffffffffffffffffffffffffffffffffffffff1681526020013373ffffffffffffffffffffffffffffffffffffffff168152602001848152602001836002811115610529576105286112af565b5b8152506002600083815260200190815260200160002060008201518160000155602082015181600101908161055e91906116da565b506040820151816002015560608201518160030160006101000a81548173ffffffffffffffffffffffffffffffffffffffff021916908373ffffffffffffffffffffffffffffffffffffffff16021790555060808201518160040160006101000a81548173ffffffffffffffffffffffffffffffffffffffff021916908373ffffffffffffffffffffffffffffffffffffffff16021790555060a082015181600501908161060c91906116da565b5060c08201518160060160006101000a81548160ff02191690836002811115610638576106376112af565b5b0217905550905050600360008281526020019081526020016000206040518060600160405280600073ffffffffffffffffffffffffffffffffffffffff1681526020013373ffffffffffffffffffffffffffffffffffffffff16815260200142815250908060018154018082558091505060019003906000526020600020906003020160009091909190915060008201518160000160006101000a81548173ffffffffffffffffffffffffffffffffffffffff021916908373ffffffffffffffffffffffffffffffffffffffff16021790555060208201518160010160006101000a81548173ffffffffffffffffffffffffffffffffffffffff021916908373ffffffffffffffffffffffffffffffffffffffff1602179055506040820151816002015550507f9c1c9cdec2fcff21ad93a3cab2f47bf36cbb60ab8a01ec923bfb84fdb491d5f081854233866040516107959594939291906117ac565b60405180910390a1600160008154809291906107b090611835565b919050555050505050565b6107c3610bd6565b6107cd6000610c5d565b565b606060036000838152602001908152602001600020805480602002602001604051908101604052809291908181526020016000905b828210156108ec57838290600052602060002090600302016040518060600160405290816000820160009054906101000a900473ffffffffffffffffffffffffffffffffffffffff1673ffffffffffffffffffffffffffffffffffffffff1673ffffffffffffffffffffffffffffffffffffffff1681526020016001820160009054906101000a900473ffffffffffffffffffffffffffffffffffffffff1673ffffffffffffffffffffffffffffffffffffffff1673ffffffffffffffffffffffffffffffffffffffff16815260200160028201548152505081526020019060010190610804565b505050509050919050565b60008060009054906101000a900473ffffffffffffffffffffffffffffffffffffffff16905090565b6000600154905090565b6003602052816000526040600020818154811061094657600080fd5b9060005260206000209060030201600091509150508060000160009054906101000a900473ffffffffffffffffffffffffffffffffffffffff16908060010160009054906101000a900473ffffffffffffffffffffffffffffffffffffffff16908060020154905083565b60026020528060005260406000206000915090508060000154908060010180546109da906114fd565b80601f0160208091040260200160405190810160405280929190818152602001828054610a06906114fd565b8015610a535780601f10610a2857610100808354040283529160200191610a53565b820191906000526020600020905b815481529060010190602001808311610a3657829003601f168201915b5050505050908060020154908060030160009054906101000a900473ffffffffffffffffffffffffffffffffffffffff16908060040160009054906101000a900473ffffffffffffffffffffffffffffffffffffffff1690806005018054610aba906114fd565b80601f0160208091040260200160405190810160405280929190818152602001828054610ae6906114fd565b8015610b335780601f10610b0857610100808354040283529160200191610b33565b820191906000526020600020905b815481529060010190602001808311610b1657829003601f168201915b5050505050908060060160009054906101000a900460ff16905087565b610b58610bd6565b600073ffffffffffffffffffffffffffffffffffffffff168173ffffffffffffffffffffffffffffffffffffffff1603610bca5760006040517f1e4fbdf7000000000000000000000000000000000000000000000000000000008152600401610bc19190611174565b60405180910390fd5b610bd381610c5d565b50565b610bde610d21565b73ffffffffffffffffffffffffffffffffffffffff16610bfc6108f7565b73ffffffffffffffffffffffffffffffffffffffff1614610c5b57610c1f610d21565b6040517f118cdaa7000000000000000000000000000000000000000000000000000000008152600401610c529190611174565b60405180910390fd5b565b60008060009054906101000a900473ffffffffffffffffffffffffffffffffffffffff169050816000806101000a81548173ffffffffffffffffffffffffffffffffffffffff021916908373ffffffffffffffffffffffffffffffffffffffff1602179055508173ffffffffffffffffffffffffffffffffffffffff168173ffffffffffffffffffffffffffffffffffffffff167f8be0079c531659141344cd1fd0a4f28419497f9722a3daafe3b4186f6b6457e060405160405180910390a35050565b600033905090565b6000604051905090565b600080fd5b600080fd5b6000819050919050565b610d5081610d3d565b8114610d5b57600080fd5b50565b600081359050610d6d81610d47565b92915050565b600073ffffffffffffffffffffffffffffffffffffffff82169050919050565b6000610d9e82610d73565b9050919050565b610dae81610d93565b8114610db957600080fd5b50565b600081359050610dcb81610da5565b92915050565b60008060408385031215610de857610de7610d33565b5b6000610df685828601610d5e565b9250506020610e0785828601610dbc565b9150509250929050565b600080fd5b600080fd5b6000601f19601f8301169050919050565b7f4e487b7100000000000000000000000000000000000000000000000000000000600052604160045260246000fd5b610e6482610e1b565b810181811067ffffffffffffffff82111715610e8357610e82610e2c565b5b80604052505050565b6000610e96610d29565b9050610ea28282610e5b565b919050565b600067ffffffffffffffff821115610ec257610ec1610e2c565b5b610ecb82610e1b565b9050602081019050919050565b82818337600083830152505050565b6000610efa610ef584610ea7565b610e8c565b905082815260208101848484011115610f1657610f15610e16565b5b610f21848285610ed8565b509392505050565b600082601f830112610f3e57610f3d610e11565b5b8135610f4e848260208601610ee7565b91505092915050565b60038110610f6457600080fd5b50565b600081359050610f7681610f57565b92915050565b600080600060608486031215610f9557610f94610d33565b5b600084013567ffffffffffffffff811115610fb357610fb2610d38565b5b610fbf86828701610f29565b935050602084013567ffffffffffffffff811115610fe057610fdf610d38565b5b610fec86828701610f29565b9250506040610ffd86828701610f67565b9150509250925092565b60006020828403121561101d5761101c610d33565b5b600061102b84828501610d5e565b91505092915050565b600081519050919050565b600082825260208201905092915050565b6000819050602082019050919050565b61106981610d93565b82525050565b61107881610d3d565b82525050565b6060820160008201516110946000850182611060565b5060208201516110a76020850182611060565b5060408201516110ba604085018261106f565b50505050565b60006110cc838361107e565b60608301905092915050565b6000602082019050919050565b60006110f082611034565b6110fa818561103f565b935061110583611050565b8060005b8381101561113657815161111d88826110c0565b9750611128836110d8565b925050600181019050611109565b5085935050505092915050565b6000602082019050818103600083015261115d81846110e5565b905092915050565b61116e81610d93565b82525050565b60006020820190506111896000830184611165565b92915050565b61119881610d3d565b82525050565b60006020820190506111b3600083018461118f565b92915050565b600080604083850312156111d0576111cf610d33565b5b60006111de85828601610d5e565b92505060206111ef85828601610d5e565b9150509250929050565b600060608201905061120e6000830186611165565b61121b6020830185611165565b611228604083018461118f565b949350505050565b600081519050919050565b600082825260208201905092915050565b60005b8381101561126a57808201518184015260208101905061124f565b60008484015250505050565b600061128182611230565b61128b818561123b565b935061129b81856020860161124c565b6112a481610e1b565b840191505092915050565b7f4e487b7100000000000000000000000000000000000000000000000000000000600052602160045260246000fd5b600381106112ef576112ee6112af565b5b50565b6000819050611300826112de565b919050565b6000611310826112f2565b9050919050565b61132081611305565b82525050565b600060e08201905061133b600083018a61118f565b818103602083015261134d8189611276565b905061135c604083018861118f565b6113696060830187611165565b6113766080830186611165565b81810360a08301526113888185611276565b905061139760c0830184611317565b98975050505050505050565b6000602082840312156113b9576113b8610d33565b5b60006113c784828501610dbc565b91505092915050565b7f45766964656e6365207265636f726420646f6573206e6f742065786973742e00600082015250565b6000611406601f8361123b565b9150611411826113d0565b602082019050919050565b60006020820190508181036000830152611435816113f9565b9050919050565b7f4f6e6c79207468652063757272656e74206f776e65722063616e207472616e7360008201527f66657220746869732065766964656e63652e0000000000000000000000000000602082015250565b600061149860328361123b565b91506114a38261143c565b604082019050919050565b600060208201905081810360008301526114c78161148b565b9050919050565b7f4e487b7100000000000000000000000000000000000000000000000000000000600052602260045260246000fd5b6000600282049050600182168061151557607f821691505b602082108103611528576115276114ce565b5b50919050565b60008190508160005260206000209050919050565b60006020601f8301049050919050565b600082821b905092915050565b6000600883026115907fffffffffffffffffffffffffffffffffffffffffffffffffffffffffffffffff82611553565b61159a8683611553565b95508019841693508086168417925050509392505050565b6000819050919050565b60006115d76115d26115cd84610d3d565b6115b2565b610d3d565b9050919050565b6000819050919050565b6115f1836115bc565b6116056115fd826115de565b848454611560565b825550505050565b600090565b61161a61160d565b6116258184846115e8565b505050565b5b818110156116495761163e600082611612565b60018101905061162b565b5050565b601f82111561168e5761165f8161152e565b61166884611543565b81016020851015611677578190505b61168b61168385611543565b83018261162a565b50505b505050565b600082821c905092915050565b60006116b160001984600802611693565b1980831691505092915050565b60006116ca83836116a0565b9150826002028217905092915050565b6116e382611230565b67ffffffffffffffff8111156116fc576116fb610e2c565b5b61170682546114fd565b61171182828561164d565b600060209050601f8311600181146117445760008415611732578287015190505b61173c85826116be565b8655506117a4565b601f1984166117528661152e565b60005b8281101561177a57848901518255600182019150602085019450602081019050611755565b868310156117975784890151611793601f8916826116a0565b8355505b6001600288020188555050505b505050505050565b600060a0820190506117c1600083018861118f565b81810360208301526117d38187611276565b90506117e2604083018661118f565b6117ef6060830185611165565b6117fc6080830184611317565b9695505050505050565b7f4e487b7100000000000000000000000000000000000000000000000000000000600052601160045260246000fd5b600061184082610d3d565b91507fffffffffffffffffffffffffffffffffffffffffffffffffffffffffffffffff820361187257611871611806565b5b60018201905091905056fea264697066735822122004b8f26c3a82254f5bc1619d3457944495a476bc008da0c4ee46fd17677fc29164736f6c63430008140033",
  "linkReferences": {},
  "deployedLinkReferences": {}
}